{
  "contractName": "CrowdFunding",
  "abi": [
    {
      "inputs": [
        {
          "internalType": "uint256",
          "name": "_goal",
          "type": "uint256"
        },
        {
          "internalType": "uint256",
          "name": "_deadline",
          "type": "uint256"
        }
      ],
      "stateMutability": "nonpayable",
      "type": "constructor"
    },
    {
      "anonymous": false,
      "inputs": [
        {
          "indexed": false,
          "internalType": "address",
          "name": "_sender",
          "type": "address"
        },
        {
          "indexed": false,
          "internalType": "uint256",
          "name": "_value",
          "type": "uint256"
        }
      ],
      "name": "ContributeEvent",
      "type": "event"
    },
    {
      "anonymous": false,
      "inputs": [
        {
          "indexed": false,
          "internalType": "string",
          "name": "_description",
          "type": "string"
        },
        {
          "indexed": false,
          "internalType": "address",
          "name": "_recipient",
          "type": "address"
        },
        {
          "indexed": false,
          "internalType": "uint256",
          "name": "_value",
          "type": "uint256"
        }
      ],
      "name": "CreateRequestEvent",
      "type": "event"
    },
    {
      "anonymous": false,
      "inputs": [
        {
          "indexed": false,
          "internalType": "address",
          "name": "_recipient",
          "type": "address"
        },
        {
          "indexed": false,
          "internalType": "uint256",
          "name": "_value",
          "type": "uint256"
        }
      ],
      "name": "MakePaymentEvent",
      "type": "event"
    },
    {
      "inputs": [],
      "name": "NoOfContributors",
      "outputs": [
        {
          "internalType": "uint256",
          "name": "",
          "type": "uint256"
        }
      ],
      "stateMutability": "view",
      "type": "function",
      "constant": true
    },
    {
      "inputs": [],
      "name": "admin",
      "outputs": [
        {
          "internalType": "address",
          "name": "",
          "type": "address"
        }
      ],
      "stateMutability": "view",
      "type": "function",
      "constant": true
    },
    {
      "inputs": [
        {
          "internalType": "address",
          "name": "",
          "type": "address"
        }
      ],
      "name": "contributors",
      "outputs": [
        {
          "internalType": "uint256",
          "name": "",
          "type": "uint256"
        }
      ],
      "stateMutability": "view",
      "type": "function",
      "constant": true
    },
    {
      "inputs": [],
      "name": "deadline",
      "outputs": [
        {
          "internalType": "uint256",
          "name": "",
          "type": "uint256"
        }
      ],
      "stateMutability": "view",
      "type": "function",
      "constant": true
    },
    {
      "inputs": [],
      "name": "goal",
      "outputs": [
        {
          "internalType": "uint256",
          "name": "",
          "type": "uint256"
        }
      ],
      "stateMutability": "view",
      "type": "function",
      "constant": true
    },
    {
      "inputs": [],
      "name": "minimumContribution",
      "outputs": [
        {
          "internalType": "uint256",
          "name": "",
          "type": "uint256"
        }
      ],
      "stateMutability": "view",
      "type": "function",
      "constant": true
    },
    {
      "inputs": [],
      "name": "numRequest",
      "outputs": [
        {
          "internalType": "uint256",
          "name": "",
          "type": "uint256"
        }
      ],
      "stateMutability": "view",
      "type": "function",
      "constant": true
    },
    {
      "inputs": [],
      "name": "raisedAmount",
      "outputs": [
        {
          "internalType": "uint256",
          "name": "",
          "type": "uint256"
        }
      ],
      "stateMutability": "view",
      "type": "function",
      "constant": true
    },
    {
      "inputs": [
        {
          "internalType": "uint256",
          "name": "",
          "type": "uint256"
        }
      ],
      "name": "requests",
      "outputs": [
        {
          "internalType": "string",
          "name": "description",
          "type": "string"
        },
        {
          "internalType": "address payable",
          "name": "recepient",
          "type": "address"
        },
        {
          "internalType": "uint256",
          "name": "value",
          "type": "uint256"
        },
        {
          "internalType": "bool",
          "name": "completed",
          "type": "bool"
        },
        {
          "internalType": "uint256",
          "name": "NoOfVoters",
          "type": "uint256"
        }
      ],
      "stateMutability": "view",
      "type": "function",
      "constant": true
    },
    {
      "stateMutability": "payable",
      "type": "receive",
      "payable": true
    },
    {
      "inputs": [],
      "name": "contribute",
      "outputs": [],
      "stateMutability": "payable",
      "type": "function",
      "payable": true
    },
    {
      "inputs": [],
      "name": "getBalance",
      "outputs": [
        {
          "internalType": "uint256",
          "name": "",
          "type": "uint256"
        }
      ],
      "stateMutability": "view",
      "type": "function",
      "constant": true
    },
    {
      "inputs": [],
      "name": "getRefund",
      "outputs": [],
      "stateMutability": "payable",
      "type": "function",
      "payable": true
    },
    {
      "inputs": [
        {
          "internalType": "string",
          "name": "_description",
          "type": "string"
        },
        {
          "internalType": "address payable",
          "name": "_recepient",
          "type": "address"
        },
        {
          "internalType": "uint256",
          "name": "_value",
          "type": "uint256"
        }
      ],
      "name": "createRequest",
      "outputs": [],
      "stateMutability": "nonpayable",
      "type": "function"
    },
    {
      "inputs": [
        {
          "internalType": "uint256",
          "name": "_numRequest",
          "type": "uint256"
        }
      ],
      "name": "voting",
      "outputs": [],
      "stateMutability": "nonpayable",
      "type": "function"
    },
    {
      "inputs": [
        {
          "internalType": "uint256",
          "name": "_numRequest",
          "type": "uint256"
        }
      ],
      "name": "makePayment",
      "outputs": [],
      "stateMutability": "nonpayable",
      "type": "function"
    }
  ],
  "bytecode": "0x608060405234801562000010575f80fd5b50604051620018ac380380620018ac8339818101604052810190620000369190620000dc565b335f806101000a81548173ffffffffffffffffffffffffffffffffffffffff021916908373ffffffffffffffffffffffffffffffffffffffff16021790555080426200008391906200014e565b600481905550816005819055506064600381905550505062000188565b5f80fd5b5f819050919050565b620000b881620000a4565b8114620000c3575f80fd5b50565b5f81519050620000d681620000ad565b92915050565b5f8060408385031215620000f557620000f4620000a0565b5b5f6200010485828601620000c6565b92505060206200011785828601620000c6565b9150509250929050565b7f4e487b71000000000000000000000000000000000000000000000000000000005f52601160045260245ffd5b5f6200015a82620000a4565b91506200016783620000a4565b925082820190508082111562000182576200018162000121565b5b92915050565b61171680620001965f395ff3fe6080604052600436106100eb575f3560e01c8063930ae44411610089578063c59ee1dc11610058578063c59ee1dc146102d0578063d7bb99ba146102fa578063f851a44014610304578063fd4a77f11461032e576100fa565b8063930ae44414610248578063937e09b114610272578063b1b164311461029c578063b2d5ae44146102c6576100fa565b806329dcb0cf116100c557806329dcb0cf1461018c57806340193883146101b65780635114cb52146101e057806381d12c5814610208576100fa565b806312065fe0146100fe5780631b16bb5c146101285780631f6d494214610150576100fa565b366100fa576100f8610356565b005b5f80fd5b348015610109575f80fd5b506101126104e1565b60405161011f9190610c25565b60405180910390f35b348015610133575f80fd5b5061014e60048036038101906101499190610e0f565b6104e8565b005b34801561015b575f80fd5b5061017660048036038101906101719190610eb6565b61062c565b6040516101839190610c25565b60405180910390f35b348015610197575f80fd5b506101a0610641565b6040516101ad9190610c25565b60405180910390f35b3480156101c1575f80fd5b506101ca610647565b6040516101d79190610c25565b60405180910390f35b3480156101eb575f80fd5b5061020660048036038101906102019190610ee1565b61064d565b005b348015610213575f80fd5b5061022e60048036038101906102299190610ee1565b610824565b60405161023f959493929190610faf565b60405180910390f35b348015610253575f80fd5b5061025c610907565b6040516102699190610c25565b60405180910390f35b34801561027d575f80fd5b5061028661090d565b6040516102939190610c25565b60405180910390f35b3480156102a7575f80fd5b506102b0610913565b6040516102bd9190610c25565b60405180910390f35b6102ce610919565b005b3480156102db575f80fd5b506102e4610a4c565b6040516102f19190610c25565b60405180910390f35b610302610356565b005b34801561030f575f80fd5b50610318610a52565b6040516103259190611016565b60405180910390f35b348015610339575f80fd5b50610354600480360381019061034f9190610ee1565b610a75565b005b600454421061039a576040517f08c379a000000000000000000000000000000000000000000000000000000000815260040161039190611079565b60405180910390fd5b6003543410156103df576040517f08c379a00000000000000000000000000000000000000000000000000000000081526004016103d6906110e1565b60405180910390fd5b5f60015f3373ffffffffffffffffffffffffffffffffffffffff1673ffffffffffffffffffffffffffffffffffffffff1681526020019081526020015f20540361043b5760025f8154809291906104359061112c565b91905055505b3460015f3373ffffffffffffffffffffffffffffffffffffffff1673ffffffffffffffffffffffffffffffffffffffff1681526020019081526020015f205f8282546104879190611173565b925050819055503460065f82825461049f9190611173565b925050819055507f2daf61dec57a2c194e9e87958b1a40a5c236b5e8c6041655d664ddbd16c2932033346040516104d79291906111a6565b60405180910390a1565b5f47905090565b3373ffffffffffffffffffffffffffffffffffffffff165f8054906101000a900473ffffffffffffffffffffffffffffffffffffffff1673ffffffffffffffffffffffffffffffffffffffff161461053e575f80fd5b5f60075f60085481526020019081526020015f20905060085f8154809291906105669061112c565b919050555083815f01908161057b91906113c7565b5082816001015f6101000a81548173ffffffffffffffffffffffffffffffffffffffff021916908373ffffffffffffffffffffffffffffffffffffffff1602179055508181600201819055505f816003015f6101000a81548160ff0219169083151502179055505f81600401819055507f5392bd80651676ccaaedec1afbe841d47e369223df0ba1586110b6426ee87a3a84848460405161061e939291906114e8565b60405180910390a150505050565b6001602052805f5260405f205f915090505481565b60045481565b60055481565b3373ffffffffffffffffffffffffffffffffffffffff165f8054906101000a900473ffffffffffffffffffffffffffffffffffffffff1673ffffffffffffffffffffffffffffffffffffffff16146106a3575f80fd5b60055460065410156106b3575f80fd5b5f60075f8381526020019081526020015f2090505f1515816003015f9054906101000a900460ff1615151461071d576040517f08c379a00000000000000000000000000000000000000000000000000000000081526004016107149061156e565b60405180910390fd5b6002805461072b91906115b9565b816004015411610739575f80fd5b806001015f9054906101000a900473ffffffffffffffffffffffffffffffffffffffff1673ffffffffffffffffffffffffffffffffffffffff166108fc826002015490811502906040515f60405180830381858888f193505050501580156107a3573d5f803e3d5ffd5b506001816003015f6101000a81548160ff0219169083151502179055507f516e1673e5e85c44620165259173329adda2ad25e7bb15020c732be060b5b790816001015f9054906101000a900473ffffffffffffffffffffffffffffffffffffffff1682600201546040516108189291906115e9565b60405180910390a15050565b6007602052805f5260405f205f91509050805f018054610843906111fa565b80601f016020809104026020016040519081016040528092919081815260200182805461086f906111fa565b80156108ba5780601f10610891576101008083540402835291602001916108ba565b820191905f5260205f20905b81548152906001019060200180831161089d57829003601f168201915b505050505090806001015f9054906101000a900473ffffffffffffffffffffffffffffffffffffffff1690806002015490806003015f9054906101000a900460ff16908060040154905085565b60025481565b60035481565b60085481565b6004544211801561092d5750600554600654105b610935575f80fd5b5f60015f3373ffffffffffffffffffffffffffffffffffffffff1673ffffffffffffffffffffffffffffffffffffffff1681526020019081526020015f20541161097d575f80fd5b5f3390505f60015f3373ffffffffffffffffffffffffffffffffffffffff1673ffffffffffffffffffffffffffffffffffffffff1681526020019081526020015f205490505f60015f8473ffffffffffffffffffffffffffffffffffffffff1673ffffffffffffffffffffffffffffffffffffffff1681526020019081526020015f20819055508173ffffffffffffffffffffffffffffffffffffffff166108fc8290811502906040515f60405180830381858888f19350505050158015610a47573d5f803e3d5ffd5b505050565b60065481565b5f8054906101000a900473ffffffffffffffffffffffffffffffffffffffff1681565b5f60015f3373ffffffffffffffffffffffffffffffffffffffff1673ffffffffffffffffffffffffffffffffffffffff1681526020019081526020015f205411610af4576040517f08c379a0000000000000000000000000000000000000000000000000000000008152600401610aeb9061165a565b60405180910390fd5b5f60075f8381526020019081526020015f2090505f1515816005015f3373ffffffffffffffffffffffffffffffffffffffff1673ffffffffffffffffffffffffffffffffffffffff1681526020019081526020015f205f9054906101000a900460ff16151514610b99576040517f08c379a0000000000000000000000000000000000000000000000000000000008152600401610b90906116c2565b60405180910390fd5b6001816005015f3373ffffffffffffffffffffffffffffffffffffffff1673ffffffffffffffffffffffffffffffffffffffff1681526020019081526020015f205f6101000a81548160ff021916908315150217905550806004015f815480929190610c049061112c565b91905055505050565b5f819050919050565b610c1f81610c0d565b82525050565b5f602082019050610c385f830184610c16565b92915050565b5f604051905090565b5f80fd5b5f80fd5b5f80fd5b5f80fd5b5f601f19601f8301169050919050565b7f4e487b71000000000000000000000000000000000000000000000000000000005f52604160045260245ffd5b610c9d82610c57565b810181811067ffffffffffffffff82111715610cbc57610cbb610c67565b5b80604052505050565b5f610cce610c3e565b9050610cda8282610c94565b919050565b5f67ffffffffffffffff821115610cf957610cf8610c67565b5b610d0282610c57565b9050602081019050919050565b828183375f83830152505050565b5f610d2f610d2a84610cdf565b610cc5565b905082815260208101848484011115610d4b57610d4a610c53565b5b610d56848285610d0f565b509392505050565b5f82601f830112610d7257610d71610c4f565b5b8135610d82848260208601610d1d565b91505092915050565b5f73ffffffffffffffffffffffffffffffffffffffff82169050919050565b5f610db482610d8b565b9050919050565b610dc481610daa565b8114610dce575f80fd5b50565b5f81359050610ddf81610dbb565b92915050565b610dee81610c0d565b8114610df8575f80fd5b50565b5f81359050610e0981610de5565b92915050565b5f805f60608486031215610e2657610e25610c47565b5b5f84013567ffffffffffffffff811115610e4357610e42610c4b565b5b610e4f86828701610d5e565b9350506020610e6086828701610dd1565b9250506040610e7186828701610dfb565b9150509250925092565b5f610e8582610d8b565b9050919050565b610e9581610e7b565b8114610e9f575f80fd5b50565b5f81359050610eb081610e8c565b92915050565b5f60208284031215610ecb57610eca610c47565b5b5f610ed884828501610ea2565b91505092915050565b5f60208284031215610ef657610ef5610c47565b5b5f610f0384828501610dfb565b91505092915050565b5f81519050919050565b5f82825260208201905092915050565b5f5b83811015610f43578082015181840152602081019050610f28565b5f8484015250505050565b5f610f5882610f0c565b610f628185610f16565b9350610f72818560208601610f26565b610f7b81610c57565b840191505092915050565b610f8f81610daa565b82525050565b5f8115159050919050565b610fa981610f95565b82525050565b5f60a0820190508181035f830152610fc78188610f4e565b9050610fd66020830187610f86565b610fe36040830186610c16565b610ff06060830185610fa0565b610ffd6080830184610c16565b9695505050505050565b61101081610e7b565b82525050565b5f6020820190506110295f830184611007565b92915050565b7f446561646c696e652068617320706173736564000000000000000000000000005f82015250565b5f611063601383610f16565b915061106e8261102f565b602082019050919050565b5f6020820190508181035f83015261109081611057565b9050919050565b7f4d696e696d756d20636f6e747269627574696f6e206e6f74206d6574000000005f82015250565b5f6110cb601c83610f16565b91506110d682611097565b602082019050919050565b5f6020820190508181035f8301526110f8816110bf565b9050919050565b7f4e487b71000000000000000000000000000000000000000000000000000000005f52601160045260245ffd5b5f61113682610c0d565b91507fffffffffffffffffffffffffffffffffffffffffffffffffffffffffffffffff8203611168576111676110ff565b5b600182019050919050565b5f61117d82610c0d565b915061118883610c0d565b92508282019050808211156111a05761119f6110ff565b5b92915050565b5f6040820190506111b95f830185611007565b6111c66020830184610c16565b9392505050565b7f4e487b71000000000000000000000000000000000000000000000000000000005f52602260045260245ffd5b5f600282049050600182168061121157607f821691505b602082108103611224576112236111cd565b5b50919050565b5f819050815f5260205f209050919050565b5f6020601f8301049050919050565b5f82821b905092915050565b5f600883026112867fffffffffffffffffffffffffffffffffffffffffffffffffffffffffffffffff8261124b565b611290868361124b565b95508019841693508086168417925050509392505050565b5f819050919050565b5f6112cb6112c66112c184610c0d565b6112a8565b610c0d565b9050919050565b5f819050919050565b6112e4836112b1565b6112f86112f0826112d2565b848454611257565b825550505050565b5f90565b61130c611300565b6113178184846112db565b505050565b5b8181101561133a5761132f5f82611304565b60018101905061131d565b5050565b601f82111561137f576113508161122a565b6113598461123c565b81016020851015611368578190505b61137c6113748561123c565b83018261131c565b50505b505050565b5f82821c905092915050565b5f61139f5f1984600802611384565b1980831691505092915050565b5f6113b78383611390565b9150826002028217905092915050565b6113d082610f0c565b67ffffffffffffffff8111156113e9576113e8610c67565b5b6113f382546111fa565b6113fe82828561133e565b5f60209050601f83116001811461142f575f841561141d578287015190505b61142785826113ac565b86555061148e565b601f19841661143d8661122a565b5f5b828110156114645784890151825560018201915060208501945060208101905061143f565b86831015611481578489015161147d601f891682611390565b8355505b6001600288020188555050505b505050505050565b5f6114b06114ab6114a684610d8b565b6112a8565b610d8b565b9050919050565b5f6114c182611496565b9050919050565b5f6114d2826114b7565b9050919050565b6114e2816114c8565b82525050565b5f6060820190508181035f8301526115008186610f4e565b905061150f60208301856114d9565b61151c6040830184610c16565b949350505050565b7f546865207265717565737420686173206265656e20636f6d706c6574656400005f82015250565b5f611558601e83610f16565b915061156382611524565b602082019050919050565b5f6020820190508181035f8301526115858161154c565b9050919050565b7f4e487b71000000000000000000000000000000000000000000000000000000005f52601260045260245ffd5b5f6115c382610c0d565b91506115ce83610c0d565b9250826115de576115dd61158c565b5b828204905092915050565b5f6040820190506115fc5f8301856114d9565b6116096020830184610c16565b9392505050565b7f796f75206d75737420626520636f6e7472696275746f7220746f20766f7465005f82015250565b5f611644601f83610f16565b915061164f82611610565b602082019050919050565b5f6020820190508181035f83015261167181611638565b9050919050565b7f596f75206861766520616c726561647920766f746564000000000000000000005f82015250565b5f6116ac601683610f16565b91506116b782611678565b602082019050919050565b5f6020820190508181035f8301526116d9816116a0565b905091905056fea2646970667358221220f8a1ce1e02c4ff8a7f8655691994640cb4d92a4a9442b43359f007ddba3bc99064736f6c63430008150033",
  "immutableReferences": {},
  "source": "// SPDX-License-Identifier: GPL-3.0\r\n\r\npragma solidity >=0.8.2 <0.9.0;\r\n\r\ncontract CrowdFunding{\r\n\r\naddress  public admin;\r\n\r\nmapping(address => uint) public contributors;\r\n\r\nuint public NoOfContributors;   //Holds number of contributors there are \r\n\r\nuint public minimumContribution; //amt in wei\r\nuint public deadline;            //timestamp\r\nuint public goal;\r\nuint public raisedAmount;        //to know at any moment hw much money the campaign has raised til that point\r\n\r\nstruct request{\r\n  string description;\r\n  address payable recepient;\r\n  uint value;\r\n  bool completed;  //at begining spending req considered not completed,once contributor voted and payment has done,then marked as completed\r\n  uint NoOfVoters;\r\n  mapping(address => bool) voters;\r\n\r\n}\r\n// admin can create more than one spending req\r\nmapping(uint => request) public requests;     //requests variable stores all spending req\r\n\r\n//NOte:u cant store the request in dynamic array becoz latest version of solidity,assignment to array in storage dont wrk if they contain mapping\r\nuint public numRequest; //its necessary becoz mapping doesnt use or increment indexes automatically (like array does)\r\n\r\n\r\n//when these func are called spl structure saved on bc in JS app that listen for the event can update an interface with info such as spending req,the payments  that were made and so on\r\n// events to emit\r\n    event ContributeEvent(address _sender, uint _value);\r\n    event CreateRequestEvent(string _description, address _recipient, uint _value);\r\n    event MakePaymentEvent(address _recipient, uint _value);\r\n    \r\n   \r\n\r\nconstructor(uint _goal, uint _deadline){          //wil set both goal and deadline of campaign\r\n\r\nadmin = msg.sender;\r\n\r\n//user give the date in human format and front end app wil translate into timestamp\r\ndeadline = block.timestamp + _deadline;           //this is current time and deadline in seconds\r\n\r\ngoal = _goal;\r\n\r\nminimumContribution = 100;\r\n\r\n}\r\n\r\nreceive() external payable{\r\n\r\ncontribute();                 //calling contribute func\r\n}\r\n\r\n//usually this is done using front end app and sending Eth with wallet\r\nfunction contribute()  public payable{           //called when someone wants to send money to contract\r\n    \r\n    require(block.timestamp < deadline, \"Deadline has passed\");\r\n    require(msg.value >= minimumContribution, \"Minimum contribution not met\");\r\n\r\n //this is first time this addr sends eth to tis contract,user could send Ether many times to contract bt being a same user we are incrementing only once   \r\n    if(contributors[msg.sender]==0){\r\n    \r\n        NoOfContributors ++;\r\n    }\r\n\r\n   contributors[msg.sender] += msg.value;  //adding the value sent with trans to mapping contributors\r\n   raisedAmount +=msg.value;               //adding current value received by contract to total raisedamt \r\n\r\n   emit ContributeEvent(msg.sender, msg.value);\r\n}\r\n\r\nfunction getBalance() public view returns(uint){\r\n\r\n   return address(this).balance;\r\n\r\n}\r\n\r\n\r\n//If goal is not reached within the deadline the campaign or project cant be executed successfuly n each user req back money\r\n\r\nfunction getRefund() payable public {\r\n  \r\n  require(block.timestamp > deadline && raisedAmount < goal); //2 cond :deadline of campaign not passed,goal not reached \r\n  require(contributors[msg.sender]>0); //current addr has already sent money to contract in past,Has +ve balance\r\n\r\n  \r\n   address payable recepient = payable(msg.sender);\r\n   uint value = contributors[msg.sender];\r\n  \r\n  contributors[recepient] = 0; //resetting the funds of recepient to zero in mapping variable\r\n\r\n   recepient.transfer(value);\r\n   \r\n\r\n}\r\n\r\n\r\nmodifier onlyAdmin(){\r\n\r\n    require(admin == msg.sender);\r\n    _;\r\n} \r\n\r\nfunction createRequest(string memory _description,address payable _recepient,uint _value) public onlyAdmin{\r\n\r\n//if u dont specify data location or specified as m/y u get error becoz struct contains nested mapping n must declared in storage\r\n request storage newRequest = requests[numRequest]; //newReq stored in storage and assigned as an element of req mapping\r\n numRequest++;\r\n\r\nnewRequest.description = _description;\r\nnewRequest.recepient = _recepient;\r\nnewRequest.value = _value;\r\nnewRequest.completed = false;\r\nnewRequest.NoOfVoters = 0;\r\n\r\n emit CreateRequestEvent(_description, _recepient, _value);\r\n\r\n\r\n}\r\n\r\n//spending req saved in mapping and each req has index \r\nfunction voting(uint _numRequest) public{\r\n\r\nrequire(contributors[msg.sender] >0,\"you must be contributor to vote\");\r\n\r\n//picking from request mapping the spending req,users votes for \r\nrequest storage newRequest = requests[_numRequest]; //contributors vote for request at specific number and saved in storage\r\n\r\nrequire(newRequest.voters[msg.sender]==false , \"You have already voted\");\r\n\r\nnewRequest.voters[msg.sender]= true;\r\n\r\nnewRequest.NoOfVoters++;\r\n\r\n}\r\n\r\n\r\n//called by admin to transfer the money of spending req to suppiler or vendors\r\nfunction makePayment(uint _numRequest) public onlyAdmin{\r\n\r\nrequire (raisedAmount >= goal); //admin can make a payment only if goal has reached\r\n\r\nrequest storage newRequest = requests[_numRequest];\r\n\r\nrequire(newRequest.completed == false ,\"The request has been completed\");\r\n\r\nrequire(newRequest.NoOfVoters > NoOfContributors/2); //50% vote for this req\r\n\r\nnewRequest.recepient.transfer(newRequest.value);\r\n\r\nnewRequest.completed = true;\r\n\r\nemit MakePaymentEvent(newRequest.recepient, newRequest.value);\r\n\r\n}\r\n\r\n\r\n}\r\n\r\n\r\n",
  "sourcePath": "D:\\Crowdfunding\\truffle\\contracts\\Crowdfunding.sol",
  "compiler": {
    "name": "solc",
    "version": "0.8.21+commit.d9974bed.Emscripten.clang"
  },
  "schemaVersion": "3.4.16",
  "updatedAt": "2024-03-14T09:57:18.196Z",
  "networkType": "ethereum",
  "devdoc": {
    "kind": "dev",
    "methods": {},
    "version": 1
  },
  "userdoc": {
    "kind": "user",
    "methods": {},
    "version": 1
  }
}